S013000041737369676E6D656E74352E73726563C3
S1130400FFFFFFFFFFFFFFFFFFFFFFFFFEFFFFFFF9
S113A00018E8FF1F39A40000A3A40000AFA40000B7
S113A010000000000000000000000000000000003C
S113A02000000000000000000000000055A5000032
S113A030000000000000000057A50000C7A10000B8
S113A040EDA40000F5A40000FDA4000005A5000097
S113A0504DA500004DA500004DA500004DA5000034
S113A0600DA5000015A500001DA5000025A50000F4
S113A0702DA5000035A500003DA500004DA500005C
S113A0804DA500004DA500004DA500004DA5000004
S113A0904DA500004DA500004DA5000045A50000FC
S113A0A04DA500004DA500004DA500004DA50000E4
S113A0B04DA500004DA500004DA500001DA2000007
S113A0C00121C006C00E8140794801607047F0B597
S113A0D0020052B2002A23D5764B020052B2120774
S113A0E0120F083A920804246243724C05006DB2C0
S113A0F02D072D0F083DAD08042675436459FF252F
S113A1008607B60F08277E43B540AC438901C9B220
S113A1108007800F082568438140214399501BE044
S113A120654A03005BB29B0804246343D258FF23AF
S113A1308407A40F08256C43A3409A438901C9B23C
S113A14083079B0F08246343994011435A4A40B242
S113A1508008042358431150F0BD80B5411E80226D
S113A1605204914201D301200EE0401E534908607D
S113A17003210020C043FFF7AAFF002050490860D4
S113A180072050490860002002BD80B500F0B2F8F5
S113A19000F0E8F81F20FFF793FF0020C043FFF70B
S113A1A08FFF494800689021090301434648016034
S113A1B0464800689021090301434448016044482B
S113A1C0FFF7CBFF01BD00B542480068401C414980
S113A1D0086041480068401C3F4908603D480068E9
S113A1E03E490968884209D13D48006880218905B3
S113A1F001433B4801600020364908603648006846
S113A20038490968884208D1374800682021014349
S113A2103548016000203049086000BD00B533486E
S113A220006800071DD52D48006840002B490860D0
S113A2302F48006800280ED0284800682C49097867
S113A2400A00D207D20F8018244908602848006801
S113A250400827490860254800680821014323482D
S113A260016022480068C0041AD51C48006802280E
S113A2700FD31F4800684000184909780A00D20724
S113A280D20F80181A49086014480068400813491E
S113A29008601648006880214901014313480160A1
S113A2A000200C49086000200B49086000BD000034
S113A2B000E100E01CED00E000E400E014E000E058
S113A2C018E000E010E000E00CB0044030B00440BE
S113A2D0EC51000008E0FF1F0CE0FF1F00E0FF1F2F
S113A2E00CF10F4004E0FF1FCCF00F40A0B004407D
S113A2F010E0FF1F14480068C0218901014312487F
S113A300016080204000114908608020400010490D
S113A3100860104800688021890501430D480160E8
S113A3200D480068202101430B4801600B48006878
S113A33080218905014309480160094800682021FA
S113A34001430748016070473880044074D00440DA
S113A35014C0044014F10F40D4F00F4004F10F4036
S113A360C4F00F40194800688021090101431748CF
S113A3700160802040001649086080204000154993
S113A3800860134800680221014311480160114824
S113A3900068022101430F4801600D480068012153
S113A3A001430B4801600B4800680121014309483F
S113A3B00160094800680821884307490860064885
S113A3C00068064901400448016070473880044031
S113A3D00CB0044030B0044094F00F40FFEFFFFF96
S113A3E030B401220EE00368C318446808301442F4
S113A3F002D04D462C19641E1D6825601B1D241DAA
S113A400091FF9D10168001D0029ECD130BC704747
S113A41010B5074979441831064C7C44163404E0DD
S113A420081D0A68891888470100A142F8D110BDA7
S113A4302C0000003C00000072B60448044901608E
S113A4400448804762B604480047000008ED00E075
S113A45000A00000E1A40000C5A4000085FFFFFFE8
S113A46014000000F400000000E0FF1F00000000E2
S113A47000F00DF8002801D0FFF7CAFF00BF00BFAD
S113A480002000BF00BF00F004F800F006F801202F
S113A490704780B5FFF779FEFEE780B500F002F85B
S113A4A001BDFEE70746384600F002F8FBE7FEE789
S113A4B080B500BF00BF024A11001820ABBEFBE705
S113A4C0260002000548014603B4684680F3098863
S113A4D000BF00BF00BF00BFFFF7CAFFA5EDF5FE38
S113A4E0002001490860704700810440004800478B
S113A4F04DA50000004800474DA500000048004756
S113A5004DA50000004800474DA500000048004745
S113A5104DA50000004800474DA500000048004735
S113A5204DA50000004800474DA500000048004725
S113A5304DA50000004800474DA500000048004715
S113A5404DA50000004800474DA500000048004705
S113A5504DA50000FEE7FEE7F4010000F401000051
S10FA560000000000000000000000000EB
S903A4C593
